{
    "contractName": "TicketToken",
    "abi": [
        {
            "inputs": [
                {
                    "internalType": "string",
                    "name": "tokenName",
                    "type": "string"
                },
                {
                    "internalType": "string",
                    "name": "tokenSymbol",
                    "type": "string"
                }
            ],
            "stateMutability": "nonpayable",
            "type": "constructor"
        },
        {
            "anonymous": false,
            "inputs": [
                {
                    "indexed": true,
                    "internalType": "address",
                    "name": "owner",
                    "type": "address"
                },
                {
                    "indexed": true,
                    "internalType": "address",
                    "name": "approved",
                    "type": "address"
                },
                {
                    "indexed": true,
                    "internalType": "uint256",
                    "name": "tokenId",
                    "type": "uint256"
                }
            ],
            "name": "Approval",
            "type": "event"
        },
        {
            "anonymous": false,
            "inputs": [
                {
                    "indexed": true,
                    "internalType": "address",
                    "name": "owner",
                    "type": "address"
                },
                {
                    "indexed": true,
                    "internalType": "address",
                    "name": "operator",
                    "type": "address"
                },
                {
                    "indexed": false,
                    "internalType": "bool",
                    "name": "approved",
                    "type": "bool"
                }
            ],
            "name": "ApprovalForAll",
            "type": "event"
        },
        {
            "anonymous": false,
            "inputs": [
                {
                    "indexed": true,
                    "internalType": "address",
                    "name": "previousOwner",
                    "type": "address"
                },
                {
                    "indexed": true,
                    "internalType": "address",
                    "name": "newOwner",
                    "type": "address"
                }
            ],
            "name": "OwnershipTransferred",
            "type": "event"
        },
        {
            "anonymous": false,
            "inputs": [
                {
                    "indexed": true,
                    "internalType": "address",
                    "name": "from",
                    "type": "address"
                },
                {
                    "indexed": true,
                    "internalType": "address",
                    "name": "to",
                    "type": "address"
                },
                {
                    "indexed": true,
                    "internalType": "uint256",
                    "name": "tokenId",
                    "type": "uint256"
                }
            ],
            "name": "Transfer",
            "type": "event"
        },
        {
            "inputs": [
                {
                    "internalType": "address",
                    "name": "to",
                    "type": "address"
                },
                {
                    "internalType": "uint256",
                    "name": "tokenId",
                    "type": "uint256"
                }
            ],
            "name": "approve",
            "outputs": [],
            "stateMutability": "nonpayable",
            "type": "function"
        },
        {
            "inputs": [
                {
                    "internalType": "address",
                    "name": "owner",
                    "type": "address"
                }
            ],
            "name": "balanceOf",
            "outputs": [
                {
                    "internalType": "uint256",
                    "name": "",
                    "type": "uint256"
                }
            ],
            "stateMutability": "view",
            "type": "function"
        },
        {
            "inputs": [
                {
                    "internalType": "uint256",
                    "name": "tokenId",
                    "type": "uint256"
                }
            ],
            "name": "getApproved",
            "outputs": [
                {
                    "internalType": "address",
                    "name": "",
                    "type": "address"
                }
            ],
            "stateMutability": "view",
            "type": "function"
        },
        {
            "inputs": [
                {
                    "internalType": "address",
                    "name": "owner",
                    "type": "address"
                },
                {
                    "internalType": "address",
                    "name": "operator",
                    "type": "address"
                }
            ],
            "name": "isApprovedForAll",
            "outputs": [
                {
                    "internalType": "bool",
                    "name": "",
                    "type": "bool"
                }
            ],
            "stateMutability": "view",
            "type": "function"
        },
        {
            "inputs": [],
            "name": "name",
            "outputs": [
                {
                    "internalType": "string",
                    "name": "",
                    "type": "string"
                }
            ],
            "stateMutability": "view",
            "type": "function"
        },
        {
            "inputs": [],
            "name": "owner",
            "outputs": [
                {
                    "internalType": "address",
                    "name": "",
                    "type": "address"
                }
            ],
            "stateMutability": "view",
            "type": "function"
        },
        {
            "inputs": [
                {
                    "internalType": "uint256",
                    "name": "tokenId",
                    "type": "uint256"
                }
            ],
            "name": "ownerOf",
            "outputs": [
                {
                    "internalType": "address",
                    "name": "",
                    "type": "address"
                }
            ],
            "stateMutability": "view",
            "type": "function"
        },
        {
            "inputs": [
                {
                    "internalType": "address",
                    "name": "from",
                    "type": "address"
                },
                {
                    "internalType": "address",
                    "name": "to",
                    "type": "address"
                },
                {
                    "internalType": "uint256",
                    "name": "tokenId",
                    "type": "uint256"
                }
            ],
            "name": "ownerSafeTransfer",
            "outputs": [],
            "stateMutability": "nonpayable",
            "type": "function"
        },
        {
            "inputs": [],
            "name": "renounceOwnership",
            "outputs": [],
            "stateMutability": "nonpayable",
            "type": "function"
        },
        {
            "inputs": [
                {
                    "internalType": "address",
                    "name": "to",
                    "type": "address"
                },
                {
                    "internalType": "uint256",
                    "name": "tokenId",
                    "type": "uint256"
                },
                {
                    "internalType": "string",
                    "name": "uri",
                    "type": "string"
                }
            ],
            "name": "safeMint",
            "outputs": [],
            "stateMutability": "nonpayable",
            "type": "function"
        },
        {
            "inputs": [
                {
                    "internalType": "address",
                    "name": "from",
                    "type": "address"
                },
                {
                    "internalType": "address",
                    "name": "to",
                    "type": "address"
                },
                {
                    "internalType": "uint256",
                    "name": "tokenId",
                    "type": "uint256"
                }
            ],
            "name": "safeTransferFrom",
            "outputs": [],
            "stateMutability": "nonpayable",
            "type": "function"
        },
        {
            "inputs": [
                {
                    "internalType": "address",
                    "name": "from",
                    "type": "address"
                },
                {
                    "internalType": "address",
                    "name": "to",
                    "type": "address"
                },
                {
                    "internalType": "uint256",
                    "name": "tokenId",
                    "type": "uint256"
                },
                {
                    "internalType": "bytes",
                    "name": "data",
                    "type": "bytes"
                }
            ],
            "name": "safeTransferFrom",
            "outputs": [],
            "stateMutability": "nonpayable",
            "type": "function"
        },
        {
            "inputs": [
                {
                    "internalType": "address",
                    "name": "operator",
                    "type": "address"
                },
                {
                    "internalType": "bool",
                    "name": "approved",
                    "type": "bool"
                }
            ],
            "name": "setApprovalForAll",
            "outputs": [],
            "stateMutability": "nonpayable",
            "type": "function"
        },
        {
            "inputs": [
                {
                    "internalType": "bytes4",
                    "name": "interfaceId",
                    "type": "bytes4"
                }
            ],
            "name": "supportsInterface",
            "outputs": [
                {
                    "internalType": "bool",
                    "name": "",
                    "type": "bool"
                }
            ],
            "stateMutability": "view",
            "type": "function"
        },
        {
            "inputs": [],
            "name": "symbol",
            "outputs": [
                {
                    "internalType": "string",
                    "name": "",
                    "type": "string"
                }
            ],
            "stateMutability": "view",
            "type": "function"
        },
        {
            "inputs": [
                {
                    "internalType": "uint256",
                    "name": "index",
                    "type": "uint256"
                }
            ],
            "name": "tokenByIndex",
            "outputs": [
                {
                    "internalType": "uint256",
                    "name": "",
                    "type": "uint256"
                }
            ],
            "stateMutability": "view",
            "type": "function"
        },
        {
            "inputs": [
                {
                    "internalType": "address",
                    "name": "owner",
                    "type": "address"
                },
                {
                    "internalType": "uint256",
                    "name": "index",
                    "type": "uint256"
                }
            ],
            "name": "tokenOfOwnerByIndex",
            "outputs": [
                {
                    "internalType": "uint256",
                    "name": "",
                    "type": "uint256"
                }
            ],
            "stateMutability": "view",
            "type": "function"
        },
        {
            "inputs": [
                {
                    "internalType": "uint256",
                    "name": "tokenId",
                    "type": "uint256"
                }
            ],
            "name": "tokenURI",
            "outputs": [
                {
                    "internalType": "string",
                    "name": "",
                    "type": "string"
                }
            ],
            "stateMutability": "view",
            "type": "function"
        },
        {
            "inputs": [],
            "name": "totalSupply",
            "outputs": [
                {
                    "internalType": "uint256",
                    "name": "",
                    "type": "uint256"
                }
            ],
            "stateMutability": "view",
            "type": "function"
        },
        {
            "inputs": [
                {
                    "internalType": "address",
                    "name": "from",
                    "type": "address"
                },
                {
                    "internalType": "address",
                    "name": "to",
                    "type": "address"
                },
                {
                    "internalType": "uint256",
                    "name": "tokenId",
                    "type": "uint256"
                }
            ],
            "name": "transferFrom",
            "outputs": [],
            "stateMutability": "nonpayable",
            "type": "function"
        },
        {
            "inputs": [
                {
                    "internalType": "address",
                    "name": "newOwner",
                    "type": "address"
                }
            ],
            "name": "transferOwnership",
            "outputs": [],
            "stateMutability": "nonpayable",
            "type": "function"
        }
    ],
    "bytecode": "60806040523480156200001157600080fd5b506040516200210538038062002105833981016040819052620000349162000193565b818160006200004483826200028c565b5060016200005382826200028c565b505050620000706200006a6200007860201b60201c565b6200007c565b505062000358565b3390565b600a80546001600160a01b038381166001600160a01b0319831681179093556040519116919082907f8be0079c531659141344cd1fd0a4f28419497f9722a3daafe3b4186f6b6457e090600090a35050565b634e487b7160e01b600052604160045260246000fd5b600082601f830112620000f657600080fd5b81516001600160401b0380821115620001135762000113620000ce565b604051601f8301601f19908116603f011681019082821181831017156200013e576200013e620000ce565b816040528381526020925086838588010111156200015b57600080fd5b600091505b838210156200017f578582018301518183018401529082019062000160565b600093810190920192909252949350505050565b60008060408385031215620001a757600080fd5b82516001600160401b0380821115620001bf57600080fd5b620001cd86838701620000e4565b93506020850151915080821115620001e457600080fd5b50620001f385828601620000e4565b9150509250929050565b600181811c908216806200021257607f821691505b6020821081036200023357634e487b7160e01b600052602260045260246000fd5b50919050565b601f8211156200028757600081815260208120601f850160051c81016020861015620002625750805b601f850160051c820191505b8181101562000283578281556001016200026e565b5050505b505050565b81516001600160401b03811115620002a857620002a8620000ce565b620002c081620002b98454620001fd565b8462000239565b602080601f831160018114620002f85760008415620002df5750858301515b600019600386901b1c1916600185901b17855562000283565b600085815260208120601f198616915b82811015620003295788860151825594840194600190910190840162000308565b5085821015620003485787850151600019600388901b60f8161c191681555b5050505050600190811b01905550565b611d9d80620003686000396000f3fe608060405234801561001057600080fd5b50600436106101375760003560e01c806370a08231116100b8578063b88d4fde1161007c578063b88d4fde14610271578063c87b56dd14610284578063cd279c7c14610297578063ce1e4dd1146102aa578063e985e9c5146102bd578063f2fde38b146102f957600080fd5b806370a082311461022a578063715018a61461023d5780638da5cb5b1461024557806395d89b4114610256578063a22cb4651461025e57600080fd5b806323b872dd116100ff57806323b872dd146101cb5780632f745c59146101de57806342842e0e146101f15780634f6ccce7146102045780636352211e1461021757600080fd5b806301ffc9a71461013c57806306fdde0314610164578063081812fc14610179578063095ea7b3146101a457806318160ddd146101b9575b600080fd5b61014f61014a366004611732565b61030c565b60405190151581526020015b60405180910390f35b61016c61031d565b60405161015b919061179f565b61018c6101873660046117b2565b6103af565b6040516001600160a01b03909116815260200161015b565b6101b76101b23660046117e7565b6103d6565b005b6008545b60405190815260200161015b565b6101b76101d9366004611811565b6104f0565b6101bd6101ec3660046117e7565b610521565b6101b76101ff366004611811565b6105b7565b6101bd6102123660046117b2565b6105d2565b61018c6102253660046117b2565b610665565b6101bd61023836600461184d565b6106c5565b6101b761074b565b600a546001600160a01b031661018c565b61016c61075f565b6101b761026c366004611868565b61076e565b6101b761027f366004611930565b61077d565b61016c6102923660046117b2565b6107b5565b6101b76102a53660046119ac565b6107c0565b6101b76102b8366004611811565b6107dc565b61014f6102cb366004611a17565b6001600160a01b03918216600090815260056020908152604080832093909416825291909152205460ff1690565b6101b761030736600461184d565b6107ff565b600061031782610878565b92915050565b60606000805461032c90611a4a565b80601f016020809104026020016040519081016040528092919081815260200182805461035890611a4a565b80156103a55780601f1061037a576101008083540402835291602001916103a5565b820191906000526020600020905b81548152906001019060200180831161038857829003601f168201915b5050505050905090565b60006103ba8261089d565b506000908152600460205260409020546001600160a01b031690565b60006103e182610665565b9050806001600160a01b0316836001600160a01b0316036104535760405162461bcd60e51b815260206004820152602160248201527f4552433732313a20617070726f76616c20746f2063757272656e74206f776e656044820152603960f91b60648201526084015b60405180910390fd5b336001600160a01b038216148061046f575061046f81336102cb565b6104e15760405162461bcd60e51b815260206004820152603d60248201527f4552433732313a20617070726f76652063616c6c6572206973206e6f7420746f60448201527f6b656e206f776e6572206f7220617070726f76656420666f7220616c6c000000606482015260840161044a565b6104eb83836108fc565b505050565b6104fa338261096a565b6105165760405162461bcd60e51b815260040161044a90611a84565b6104eb8383836109e9565b600061052c836106c5565b821061058e5760405162461bcd60e51b815260206004820152602b60248201527f455243373231456e756d657261626c653a206f776e657220696e646578206f7560448201526a74206f6620626f756e647360a81b606482015260840161044a565b506001600160a01b03919091166000908152600660209081526040808320938352929052205490565b6104eb8383836040518060200160405280600081525061077d565b60006105dd60085490565b82106106405760405162461bcd60e51b815260206004820152602c60248201527f455243373231456e756d657261626c653a20676c6f62616c20696e646578206f60448201526b7574206f6620626f756e647360a01b606482015260840161044a565b6008828154811061065357610653611ad1565b90600052602060002001549050919050565b6000818152600260205260408120546001600160a01b0316806103175760405162461bcd60e51b8152602060048201526018602482015277115490cdcc8c4e881a5b9d985b1a59081d1bdad95b88125160421b604482015260640161044a565b60006001600160a01b03821661072f5760405162461bcd60e51b815260206004820152602960248201527f4552433732313a2061646472657373207a65726f206973206e6f7420612076616044820152683634b21037bbb732b960b91b606482015260840161044a565b506001600160a01b031660009081526003602052604090205490565b610753610b5a565b61075d6000610bb4565b565b60606001805461032c90611a4a565b610779338383610c06565b5050565b610787338361096a565b6107a35760405162461bcd60e51b815260040161044a90611a84565b6107af84848484610cd4565b50505050565b606061031782610d07565b6107c8610b5a565b6107d28383610e0f565b6104eb8282610e29565b6107e4610b5a565b6104eb83838360405180602001604052806000815250610cd4565b610807610b5a565b6001600160a01b03811661086c5760405162461bcd60e51b815260206004820152602660248201527f4f776e61626c653a206e6577206f776e657220697320746865207a65726f206160448201526564647265737360d01b606482015260840161044a565b61087581610bb4565b50565b60006001600160e01b0319821663780e9d6360e01b1480610317575061031782610ebc565b6000818152600260205260409020546001600160a01b03166108755760405162461bcd60e51b8152602060048201526018602482015277115490cdcc8c4e881a5b9d985b1a59081d1bdad95b88125160421b604482015260640161044a565b600081815260046020526040902080546001600160a01b0319166001600160a01b038416908117909155819061093182610665565b6001600160a01b03167f8c5be1e5ebec7d5bd14f71427d1e84f3dd0314c0f7b2291e5b200ac8c7c3b92560405160405180910390a45050565b60008061097683610665565b9050806001600160a01b0316846001600160a01b031614806109bd57506001600160a01b0380821660009081526005602090815260408083209388168352929052205460ff165b806109e15750836001600160a01b03166109d6846103af565b6001600160a01b0316145b949350505050565b826001600160a01b03166109fc82610665565b6001600160a01b031614610a225760405162461bcd60e51b815260040161044a90611ae7565b6001600160a01b038216610a845760405162461bcd60e51b8152602060048201526024808201527f4552433732313a207472616e7366657220746f20746865207a65726f206164646044820152637265737360e01b606482015260840161044a565b610a918383836001610f0c565b826001600160a01b0316610aa482610665565b6001600160a01b031614610aca5760405162461bcd60e51b815260040161044a90611ae7565b600081815260046020908152604080832080546001600160a01b03199081169091556001600160a01b0387811680865260038552838620805460001901905590871680865283862080546001019055868652600290945282852080549092168417909155905184937fddf252ad1be2c89b69c2b068fc378daa952ba7f163c4a11628f55a4df523b3ef91a4505050565b600a546001600160a01b0316331461075d5760405162461bcd60e51b815260206004820181905260248201527f4f776e61626c653a2063616c6c6572206973206e6f7420746865206f776e6572604482015260640161044a565b600a80546001600160a01b038381166001600160a01b0319831681179093556040519116919082907f8be0079c531659141344cd1fd0a4f28419497f9722a3daafe3b4186f6b6457e090600090a35050565b816001600160a01b0316836001600160a01b031603610c675760405162461bcd60e51b815260206004820152601960248201527f4552433732313a20617070726f766520746f2063616c6c657200000000000000604482015260640161044a565b6001600160a01b03838116600081815260056020908152604080832094871680845294825291829020805460ff191686151590811790915591519182527f17307eab39ab6107e8899845ad3d59bd9653f200f220920489ca2b5937696c31910160405180910390a3505050565b610cdf8484846109e9565b610ceb84848484610f18565b6107af5760405162461bcd60e51b815260040161044a90611b2c565b6060610d128261089d565b6000828152600b602052604081208054610d2b90611a4a565b80601f0160208091040260200160405190810160405280929190818152602001828054610d5790611a4a565b8015610da45780601f10610d7957610100808354040283529160200191610da4565b820191906000526020600020905b815481529060010190602001808311610d8757829003601f168201915b505050505090506000610dc260408051602081019091526000815290565b90508051600003610dd4575092915050565b815115610e06578082604051602001610dee929190611b7e565b60405160208183030381529060405292505050919050565b6109e184611019565b61077982826040518060200160405280600081525061108d565b6000828152600260205260409020546001600160a01b0316610ea45760405162461bcd60e51b815260206004820152602e60248201527f45524337323155524953746f726167653a2055524920736574206f66206e6f6e60448201526d32bc34b9ba32b73a103a37b5b2b760911b606482015260840161044a565b6000828152600b602052604090206104eb8282611bfb565b60006001600160e01b031982166380ac58cd60e01b1480610eed57506001600160e01b03198216635b5e139f60e01b145b8061031757506301ffc9a760e01b6001600160e01b0319831614610317565b6107af848484846110c0565b60006001600160a01b0384163b1561100e57604051630a85bd0160e11b81526001600160a01b0385169063150b7a0290610f5c903390899088908890600401611cbb565b6020604051808303816000875af1925050508015610f97575060408051601f3d908101601f19168201909252610f9491810190611cf8565b60015b610ff4573d808015610fc5576040519150601f19603f3d011682016040523d82523d6000602084013e610fca565b606091505b508051600003610fec5760405162461bcd60e51b815260040161044a90611b2c565b805181602001fd5b6001600160e01b031916630a85bd0160e11b1490506109e1565b506001949350505050565b60606110248261089d565b600061103b60408051602081019091526000815290565b9050600081511161105b5760405180602001604052806000815250611086565b8061106584611200565b604051602001611076929190611b7e565b6040516020818303038152906040525b9392505050565b6110978383611293565b6110a46000848484610f18565b6104eb5760405162461bcd60e51b815260040161044a90611b2c565b6110cc8484848461142c565b600181111561113b5760405162461bcd60e51b815260206004820152603560248201527f455243373231456e756d657261626c653a20636f6e7365637574697665207472604482015274185b9cd9995c9cc81b9bdd081cdd5c1c1bdc9d1959605a1b606482015260840161044a565b816001600160a01b0385166111975761119281600880546000838152600960205260408120829055600182018355919091527ff3f7a9fe364faab93b216da50a3214154f22a0a2b415b23a84c8169e8b636ee30155565b6111ba565b836001600160a01b0316856001600160a01b0316146111ba576111ba85826114b4565b6001600160a01b0384166111d6576111d181611551565b6111f9565b846001600160a01b0316846001600160a01b0316146111f9576111f98482611600565b5050505050565b6060600061120d83611644565b600101905060008167ffffffffffffffff81111561122d5761122d6118a4565b6040519080825280601f01601f191660200182016040528015611257576020820181803683370190505b5090508181016020015b600019016f181899199a1a9b1b9c1cb0b131b232b360811b600a86061a8153600a850494508461126157509392505050565b6001600160a01b0382166112e95760405162461bcd60e51b815260206004820181905260248201527f4552433732313a206d696e7420746f20746865207a65726f2061646472657373604482015260640161044a565b6000818152600260205260409020546001600160a01b03161561134e5760405162461bcd60e51b815260206004820152601c60248201527f4552433732313a20746f6b656e20616c7265616479206d696e74656400000000604482015260640161044a565b61135c600083836001610f0c565b6000818152600260205260409020546001600160a01b0316156113c15760405162461bcd60e51b815260206004820152601c60248201527f4552433732313a20746f6b656e20616c7265616479206d696e74656400000000604482015260640161044a565b6001600160a01b038216600081815260036020908152604080832080546001019055848352600290915280822080546001600160a01b0319168417905551839291907fddf252ad1be2c89b69c2b068fc378daa952ba7f163c4a11628f55a4df523b3ef908290a45050565b60018111156107af576001600160a01b03841615611472576001600160a01b0384166000908152600360205260408120805483929061146c908490611d2b565b90915550505b6001600160a01b038316156107af576001600160a01b038316600090815260036020526040812080548392906114a9908490611d3e565b909155505050505050565b600060016114c1846106c5565b6114cb9190611d2b565b60008381526007602052604090205490915080821461151e576001600160a01b03841660009081526006602090815260408083208584528252808320548484528184208190558352600790915290208190555b5060009182526007602090815260408084208490556001600160a01b039094168352600681528383209183525290812055565b60085460009061156390600190611d2b565b6000838152600960205260408120546008805493945090928490811061158b5761158b611ad1565b9060005260206000200154905080600883815481106115ac576115ac611ad1565b60009182526020808320909101929092558281526009909152604080822084905585825281205560088054806115e4576115e4611d51565b6001900381819060005260206000200160009055905550505050565b600061160b836106c5565b6001600160a01b039093166000908152600660209081526040808320868452825280832085905593825260079052919091209190915550565b60008072184f03e93ff9f4daa797ed6e38ed64bf6a1f0160401b83106116835772184f03e93ff9f4daa797ed6e38ed64bf6a1f0160401b830492506040015b6d04ee2d6d415b85acef810000000083106116af576d04ee2d6d415b85acef8100000000830492506020015b662386f26fc1000083106116cd57662386f26fc10000830492506010015b6305f5e10083106116e5576305f5e100830492506008015b61271083106116f957612710830492506004015b6064831061170b576064830492506002015b600a83106103175760010192915050565b6001600160e01b03198116811461087557600080fd5b60006020828403121561174457600080fd5b81356110868161171c565b60005b8381101561176a578181015183820152602001611752565b50506000910152565b6000815180845261178b81602086016020860161174f565b601f01601f19169290920160200192915050565b6020815260006110866020830184611773565b6000602082840312156117c457600080fd5b5035919050565b80356001600160a01b03811681146117e257600080fd5b919050565b600080604083850312156117fa57600080fd5b611803836117cb565b946020939093013593505050565b60008060006060848603121561182657600080fd5b61182f846117cb565b925061183d602085016117cb565b9150604084013590509250925092565b60006020828403121561185f57600080fd5b611086826117cb565b6000806040838503121561187b57600080fd5b611884836117cb565b91506020830135801515811461189957600080fd5b809150509250929050565b634e487b7160e01b600052604160045260246000fd5b600067ffffffffffffffff808411156118d5576118d56118a4565b604051601f8501601f19908116603f011681019082821181831017156118fd576118fd6118a4565b8160405280935085815286868601111561191657600080fd5b858560208301376000602087830101525050509392505050565b6000806000806080858703121561194657600080fd5b61194f856117cb565b935061195d602086016117cb565b925060408501359150606085013567ffffffffffffffff81111561198057600080fd5b8501601f8101871361199157600080fd5b6119a0878235602084016118ba565b91505092959194509250565b6000806000606084860312156119c157600080fd5b6119ca846117cb565b925060208401359150604084013567ffffffffffffffff8111156119ed57600080fd5b8401601f810186136119fe57600080fd5b611a0d868235602084016118ba565b9150509250925092565b60008060408385031215611a2a57600080fd5b611a33836117cb565b9150611a41602084016117cb565b90509250929050565b600181811c90821680611a5e57607f821691505b602082108103611a7e57634e487b7160e01b600052602260045260246000fd5b50919050565b6020808252602d908201527f4552433732313a2063616c6c6572206973206e6f7420746f6b656e206f776e6560408201526c1c881bdc88185c1c1c9bdd9959609a1b606082015260800190565b634e487b7160e01b600052603260045260246000fd5b60208082526025908201527f4552433732313a207472616e736665722066726f6d20696e636f72726563742060408201526437bbb732b960d91b606082015260800190565b60208082526032908201527f4552433732313a207472616e7366657220746f206e6f6e20455243373231526560408201527131b2b4bb32b91034b6b83632b6b2b73a32b960711b606082015260800190565b60008351611b9081846020880161174f565b835190830190611ba481836020880161174f565b01949350505050565b601f8211156104eb57600081815260208120601f850160051c81016020861015611bd45750805b601f850160051c820191505b81811015611bf357828155600101611be0565b505050505050565b815167ffffffffffffffff811115611c1557611c156118a4565b611c2981611c238454611a4a565b84611bad565b602080601f831160018114611c5e5760008415611c465750858301515b600019600386901b1c1916600185901b178555611bf3565b600085815260208120601f198616915b82811015611c8d57888601518255948401946001909101908401611c6e565b5085821015611cab5787850151600019600388901b60f8161c191681555b5050505050600190811b01905550565b6001600160a01b0385811682528416602082015260408101839052608060608201819052600090611cee90830184611773565b9695505050505050565b600060208284031215611d0a57600080fd5b81516110868161171c565b634e487b7160e01b600052601160045260246000fd5b8181038181111561031757610317611d15565b8082018082111561031757610317611d15565b634e487b7160e01b600052603160045260246000fdfea264697066735822122085cbe60149752587341cd441ddaa5849762e089b7417e41a45197eaec2f43bc464736f6c63430008110033",
    "sourcePath": "/Users/u004488/Documents/Dev/Personal/tcc-ii-pucminas-smartticketing/Instrumentos/Codigos/SmartContract/event-contract.sol",
    "compiler": {
        "name": "solc",
        "version": "0.8.17+commit.8df45f5f"
    },
    "functionHashes": {
        "approve(address,uint256)": "095ea7b3",
        "balanceOf(address)": "70a08231",
        "getApproved(uint256)": "081812fc",
        "isApprovedForAll(address,address)": "e985e9c5",
        "name()": "06fdde03",
        "owner()": "8da5cb5b",
        "ownerOf(uint256)": "6352211e",
        "ownerSafeTransfer(address,address,uint256)": "ce1e4dd1",
        "renounceOwnership()": "715018a6",
        "safeMint(address,uint256,string)": "cd279c7c",
        "safeTransferFrom(address,address,uint256)": "42842e0e",
        "safeTransferFrom(address,address,uint256,bytes)": "b88d4fde",
        "setApprovalForAll(address,bool)": "a22cb465",
        "supportsInterface(bytes4)": "01ffc9a7",
        "symbol()": "95d89b41",
        "tokenByIndex(uint256)": "4f6ccce7",
        "tokenOfOwnerByIndex(address,uint256)": "2f745c59",
        "tokenURI(uint256)": "c87b56dd",
        "totalSupply()": "18160ddd",
        "transferFrom(address,address,uint256)": "23b872dd",
        "transferOwnership(address)": "f2fde38b"
    },
    "gasEstimates": {
        "creation": {
            "codeDepositCost": "1516200",
            "executionCost": "infinite",
            "totalCost": "infinite"
        },
        "external": {
            "approve(address,uint256)": "infinite",
            "balanceOf(address)": "2612",
            "getApproved(uint256)": "4792",
            "isApprovedForAll(address,address)": "infinite",
            "name()": "infinite",
            "owner()": "2398",
            "ownerOf(uint256)": "2649",
            "ownerSafeTransfer(address,address,uint256)": "infinite",
            "renounceOwnership()": "infinite",
            "safeMint(address,uint256,string)": "infinite",
            "safeTransferFrom(address,address,uint256)": "infinite",
            "safeTransferFrom(address,address,uint256,bytes)": "infinite",
            "setApprovalForAll(address,bool)": "26794",
            "supportsInterface(bytes4)": "infinite",
            "symbol()": "infinite",
            "tokenByIndex(uint256)": "6804",
            "tokenOfOwnerByIndex(address,uint256)": "4975",
            "tokenURI(uint256)": "infinite",
            "totalSupply()": "2393",
            "transferFrom(address,address,uint256)": "infinite",
            "transferOwnership(address)": "28468"
        },
        "internal": {
            "_beforeTokenTransfer(address,address,uint256,uint256)": "infinite",
            "_burn(uint256)": "infinite"
        }
    }
}